:100000006F000009000000002E0100002E0100001A
:10001000A9BDF9F32E01000000000000000000005F
:100020002E0100002E010000000000000000000072
:100030002E010000000000002E0100000000000062
:100040002E0100002E0100002E0100002E010000F4
:100050002E0100002E0100002E0100000000000013
:100060002E0100002E0100002E0100002E010000D4
:100070002E0100002E0100002E0100002E010000C4
:100080002E0100002E0100002E0100002E010000B4
:10009000970100209381C13617310020130181F6AA
:1000A000138541C0938541C06377B50023200500C7
:1000B0001105E36DB5FE13050009938541C0138654
:1000C00041C063FAC5008322050023A05500110535
:1000D0009105E3EAC5FE13058029938541C0138687
:1000E00041C0638AC5008322050023A05500110585
:1000F0009105E3EAC5FE93070000FD42739002BC40
:1001000089629382828873A00230970200009382F2
:1001100062EF93E2320073905230B7F700E0054788
:1001200098C39307401D739017347300203001A0CB
:100130002A96AA876393C70082802380B700850729
:10014000D5BF81476313F60082803387F50083466D
:1001500007003307F50085072300D700E5B7B71779
:100160000040930570052380B704130680FA2380AE
:10017000C7040100010003C7A700854613670701F4
:100180002385E70037270040A303D78083465780A5
:1001900093E60601A302D780238007040100010033
:1001A0002380B7042380C704010001001307A004C3
:1001B0002384E7002380070401000100B70700E063
:1001C0001387473423200700938707341307000859
:1001D00098C38280411106C659373717004013066D
:1001E000470B1442856793870780DD8E14C2930600
:1001F000070A8C421307070B37180040DD8D8CC2AD
:100200000C429308C80AF5990CC2104313662600E5
:1002100010C398422546759B98C2B7760B0037F7F6
:1002200000E09386061B23A0F800084736950C478C
:10023000898DE3CE05FE9305880B9CC109CA08474A
:1002400036950C47898DE3CE05FE7D16E9BFB7C50F
:10025000030009669385050C37050020DD35D1675D
:100260003707002093875750372500202326F710A3
:10027000130640478145130505BA5D3DB7210020AF
:1002800093818139B71200209382621973901234DE
:080290007300203001A0000002
:00000001FF
